{
  "abi": [
    {
      "anonymous": false,
      "inputs": [
        {
          "indexed": true,
          "internalType": "address",
          "name": "user",
          "type": "address"
        },
        {
          "indexed": false,
          "internalType": "string",
          "name": "name",
          "type": "string"
        },
        {
          "indexed": false,
          "internalType": "bool",
          "name": "isVerified",
          "type": "bool"
        }
      ],
      "name": "UserRegistered",
      "type": "event"
    },
    {
      "inputs": [
        {
          "internalType": "string",
          "name": "_name",
          "type": "string"
        }
      ],
      "name": "registerUser",
      "outputs": [],
      "stateMutability": "nonpayable",
      "type": "function"
    },
    {
      "inputs": [
        {
          "internalType": "address",
          "name": "",
          "type": "address"
        }
      ],
      "name": "users",
      "outputs": [
        {
          "internalType": "string",
          "name": "name",
          "type": "string"
        },
        {
          "internalType": "address",
          "name": "walletAddress",
          "type": "address"
        },
        {
          "internalType": "bool",
          "name": "isVerified",
          "type": "bool"
        }
      ],
      "stateMutability": "view",
      "type": "function"
    },
    {
      "inputs": [
        {
          "internalType": "address",
          "name": "_userAddress",
          "type": "address"
        }
      ],
      "name": "verifyUser",
      "outputs": [],
      "stateMutability": "nonpayable",
      "type": "function"
    }
  ],
  "devdoc": {
    "kind": "dev",
    "methods": {},
    "version": 1
  },
  "evm": {
    "assembly": "    /* \"UserRegistration.sol\":64:1028  contract UserRegistration {... */\n  mstore(0x40, 0x80)\n  callvalue\n  dup1\n  iszero\n  tag_1\n  jumpi\n  0x00\n  dup1\n  revert\ntag_1:\n  pop\n  dataSize(sub_0)\n  dup1\n  dataOffset(sub_0)\n  0x00\n  codecopy\n  0x00\n  return\nstop\n\nsub_0: assembly {\n        /* \"UserRegistration.sol\":64:1028  contract UserRegistration {... */\n      mstore(0x40, 0x80)\n      callvalue\n      dup1\n      iszero\n      tag_1\n      jumpi\n      0x00\n      dup1\n      revert\n    tag_1:\n      pop\n      jumpi(tag_2, lt(calldatasize, 0x04))\n      shr(0xe0, calldataload(0x00))\n      dup1\n      0x4d813120\n      eq\n      tag_3\n      jumpi\n      dup1\n      0x704f1b94\n      eq\n      tag_4\n      jumpi\n      dup1\n      0xa87430ba\n      eq\n      tag_5\n      jumpi\n    tag_2:\n      0x00\n      dup1\n      revert\n        /* \"UserRegistration.sol\":752:1026  function verifyUser(address _userAddress) public {... */\n    tag_3:\n      tag_6\n      0x04\n      dup1\n      calldatasize\n      sub\n      dup2\n      add\n      swap1\n      tag_7\n      swap2\n      swap1\n      tag_8\n      jump\t// in\n    tag_7:\n      tag_9\n      jump\t// in\n    tag_6:\n      stop\n        /* \"UserRegistration.sol\":473:746  function registerUser(string memory _name) public onlyNewUser {... */\n    tag_4:\n      tag_10\n      0x04\n      dup1\n      calldatasize\n      sub\n      dup2\n      add\n      swap1\n      tag_11\n      swap2\n      swap1\n      tag_12\n      jump\t// in\n    tag_11:\n      tag_13\n      jump\t// in\n    tag_10:\n      stop\n        /* \"UserRegistration.sol\":205:249  mapping(address => UserProfile) public users */\n    tag_5:\n      tag_14\n      0x04\n      dup1\n      calldatasize\n      sub\n      dup2\n      add\n      swap1\n      tag_15\n      swap2\n      swap1\n      tag_8\n      jump\t// in\n    tag_15:\n      tag_16\n      jump\t// in\n    tag_14:\n      mload(0x40)\n      tag_17\n      swap4\n      swap3\n      swap2\n      swap1\n      tag_18\n      jump\t// in\n    tag_17:\n      mload(0x40)\n      dup1\n      swap2\n      sub\n      swap1\n      return\n        /* \"UserRegistration.sol\":752:1026  function verifyUser(address _userAddress) public {... */\n    tag_9:\n        /* \"UserRegistration.sol\":833:845  _userAddress */\n      dup1\n        /* \"UserRegistration.sol\":819:845  msg.sender == _userAddress */\n      0xffffffffffffffffffffffffffffffffffffffff\n      and\n        /* \"UserRegistration.sol\":819:829  msg.sender */\n      caller\n        /* \"UserRegistration.sol\":819:845  msg.sender == _userAddress */\n      0xffffffffffffffffffffffffffffffffffffffff\n      and\n      eq\n        /* \"UserRegistration.sol\":811:897  require(msg.sender == _userAddress, \"Verification can only be performed by the user.\") */\n      tag_20\n      jumpi\n      mload(0x40)\n      0x08c379a000000000000000000000000000000000000000000000000000000000\n      dup2\n      mstore\n      0x04\n      add\n      tag_21\n      swap1\n      tag_22\n      jump\t// in\n    tag_21:\n      mload(0x40)\n      dup1\n      swap2\n      sub\n      swap1\n      revert\n    tag_20:\n        /* \"UserRegistration.sol\":940:944  true */\n      0x01\n        /* \"UserRegistration.sol\":907:912  users */\n      0x00\n        /* \"UserRegistration.sol\":907:926  users[_userAddress] */\n      dup1\n        /* \"UserRegistration.sol\":913:925  _userAddress */\n      dup4\n        /* \"UserRegistration.sol\":907:926  users[_userAddress] */\n      0xffffffffffffffffffffffffffffffffffffffff\n      and\n      0xffffffffffffffffffffffffffffffffffffffff\n      and\n      dup2\n      mstore\n      0x20\n      add\n      swap1\n      dup2\n      mstore\n      0x20\n      add\n      0x00\n      keccak256\n        /* \"UserRegistration.sol\":907:937  users[_userAddress].isVerified */\n      0x01\n      add\n      0x14\n        /* \"UserRegistration.sol\":907:944  users[_userAddress].isVerified = true */\n      0x0100\n      exp\n      dup2\n      sload\n      dup2\n      0xff\n      mul\n      not\n      and\n      swap1\n      dup4\n      iszero\n      iszero\n      mul\n      or\n      swap1\n      sstore\n      pop\n        /* \"UserRegistration.sol\":974:986  _userAddress */\n      dup1\n        /* \"UserRegistration.sol\":959:1019  UserRegistered(_userAddress, users[_userAddress].name, true) */\n      0xffffffffffffffffffffffffffffffffffffffff\n      and\n      0x0b2d2fe99b0620e0994de6f522eb19dcc5b5fd39b27be67cea0547c4ed9dbdfc\n        /* \"UserRegistration.sol\":988:993  users */\n      0x00\n        /* \"UserRegistration.sol\":988:1007  users[_userAddress] */\n      dup1\n        /* \"UserRegistration.sol\":994:1006  _userAddress */\n      dup5\n        /* \"UserRegistration.sol\":988:1007  users[_userAddress] */\n      0xffffffffffffffffffffffffffffffffffffffff\n      and\n      0xffffffffffffffffffffffffffffffffffffffff\n      and\n      dup2\n      mstore\n      0x20\n      add\n      swap1\n      dup2\n      mstore\n      0x20\n      add\n      0x00\n      keccak256\n        /* \"UserRegistration.sol\":988:1012  users[_userAddress].name */\n      0x00\n      add\n        /* \"UserRegistration.sol\":1014:1018  true */\n      0x01\n        /* \"UserRegistration.sol\":959:1019  UserRegistered(_userAddress, users[_userAddress].name, true) */\n      mload(0x40)\n      tag_23\n      swap3\n      swap2\n      swap1\n      tag_24\n      jump\t// in\n    tag_23:\n      mload(0x40)\n      dup1\n      swap2\n      sub\n      swap1\n      log2\n        /* \"UserRegistration.sol\":752:1026  function verifyUser(address _userAddress) public {... */\n      pop\n      jump\t// out\n        /* \"UserRegistration.sol\":473:746  function registerUser(string memory _name) public onlyNewUser {... */\n    tag_13:\n        /* \"UserRegistration.sol\":419:420  0 */\n      0x00\n        /* \"UserRegistration.sol\":376:421  users[msg.sender].walletAddress == address(0) */\n      0xffffffffffffffffffffffffffffffffffffffff\n      and\n        /* \"UserRegistration.sol\":376:381  users */\n      0x00\n        /* \"UserRegistration.sol\":376:393  users[msg.sender] */\n      dup1\n        /* \"UserRegistration.sol\":382:392  msg.sender */\n      caller\n        /* \"UserRegistration.sol\":376:393  users[msg.sender] */\n      0xffffffffffffffffffffffffffffffffffffffff\n      and\n      0xffffffffffffffffffffffffffffffffffffffff\n      and\n      dup2\n      mstore\n      0x20\n      add\n      swap1\n      dup2\n      mstore\n      0x20\n      add\n      0x00\n      keccak256\n        /* \"UserRegistration.sol\":376:407  users[msg.sender].walletAddress */\n      0x01\n      add\n      0x00\n      swap1\n      sload\n      swap1\n      0x0100\n      exp\n      swap1\n      div\n      0xffffffffffffffffffffffffffffffffffffffff\n      and\n        /* \"UserRegistration.sol\":376:421  users[msg.sender].walletAddress == address(0) */\n      0xffffffffffffffffffffffffffffffffffffffff\n      and\n      eq\n        /* \"UserRegistration.sol\":368:449  require(users[msg.sender].walletAddress == address(0), \"User already registered\") */\n      tag_26\n      jumpi\n      mload(0x40)\n      0x08c379a000000000000000000000000000000000000000000000000000000000\n      dup2\n      mstore\n      0x04\n      add\n      tag_27\n      swap1\n      tag_28\n      jump\t// in\n    tag_27:\n      mload(0x40)\n      dup1\n      swap2\n      sub\n      swap1\n      revert\n    tag_26:\n        /* \"UserRegistration.sol\":565:683  UserProfile({... */\n      mload(0x40)\n      dup1\n      0x60\n      add\n      0x40\n      mstore\n      dup1\n        /* \"UserRegistration.sol\":597:602  _name */\n      dup3\n        /* \"UserRegistration.sol\":565:683  UserProfile({... */\n      dup2\n      mstore\n      0x20\n      add\n        /* \"UserRegistration.sol\":631:641  msg.sender */\n      caller\n        /* \"UserRegistration.sol\":565:683  UserProfile({... */\n      0xffffffffffffffffffffffffffffffffffffffff\n      and\n      dup2\n      mstore\n      0x20\n      add\n        /* \"UserRegistration.sol\":667:672  false */\n      0x00\n        /* \"UserRegistration.sol\":565:683  UserProfile({... */\n      iszero\n      iszero\n      dup2\n      mstore\n      pop\n        /* \"UserRegistration.sol\":545:550  users */\n      0x00\n        /* \"UserRegistration.sol\":545:562  users[msg.sender] */\n      dup1\n        /* \"UserRegistration.sol\":551:561  msg.sender */\n      caller\n        /* \"UserRegistration.sol\":545:562  users[msg.sender] */\n      0xffffffffffffffffffffffffffffffffffffffff\n      and\n      0xffffffffffffffffffffffffffffffffffffffff\n      and\n      dup2\n      mstore\n      0x20\n      add\n      swap1\n      dup2\n      mstore\n      0x20\n      add\n      0x00\n      keccak256\n        /* \"UserRegistration.sol\":545:683  users[msg.sender] = UserProfile({... */\n      0x00\n      dup3\n      add\n      mload\n      dup2\n      0x00\n      add\n      swap1\n      dup1\n      mload\n      swap1\n      0x20\n      add\n      swap1\n      tag_30\n      swap3\n      swap2\n      swap1\n      tag_31\n      jump\t// in\n    tag_30:\n      pop\n      0x20\n      dup3\n      add\n      mload\n      dup2\n      0x01\n      add\n      exp(0x0100, 0x00)\n      dup2\n      sload\n      dup2\n      0xffffffffffffffffffffffffffffffffffffffff\n      mul\n      not\n      and\n      swap1\n      dup4\n      0xffffffffffffffffffffffffffffffffffffffff\n      and\n      mul\n      or\n      swap1\n      sstore\n      pop\n      0x40\n      dup3\n      add\n      mload\n      dup2\n      0x01\n      add\n      exp(0x0100, 0x14)\n      dup2\n      sload\n      dup2\n      0xff\n      mul\n      not\n      and\n      swap1\n      dup4\n      iszero\n      iszero\n      mul\n      or\n      swap1\n      sstore\n      pop\n      swap1\n      pop\n      pop\n        /* \"UserRegistration.sol\":714:724  msg.sender */\n      caller\n        /* \"UserRegistration.sol\":699:739  UserRegistered(msg.sender, _name, false) */\n      0xffffffffffffffffffffffffffffffffffffffff\n      and\n      0x0b2d2fe99b0620e0994de6f522eb19dcc5b5fd39b27be67cea0547c4ed9dbdfc\n        /* \"UserRegistration.sol\":726:731  _name */\n      dup3\n        /* \"UserRegistration.sol\":733:738  false */\n      0x00\n        /* \"UserRegistration.sol\":699:739  UserRegistered(msg.sender, _name, false) */\n      mload(0x40)\n      tag_32\n      swap3\n      swap2\n      swap1\n      tag_33\n      jump\t// in\n    tag_32:\n      mload(0x40)\n      dup1\n      swap2\n      sub\n      swap1\n      log2\n        /* \"UserRegistration.sol\":473:746  function registerUser(string memory _name) public onlyNewUser {... */\n      pop\n      jump\t// out\n        /* \"UserRegistration.sol\":205:249  mapping(address => UserProfile) public users */\n    tag_16:\n      mstore(0x20, 0x00)\n      dup1\n      0x00\n      mstore\n      keccak256(0x00, 0x40)\n      0x00\n      swap2\n      pop\n      swap1\n      pop\n      dup1\n      0x00\n      add\n      dup1\n      sload\n      tag_34\n      swap1\n      tag_35\n      jump\t// in\n    tag_34:\n      dup1\n      0x1f\n      add\n      0x20\n      dup1\n      swap2\n      div\n      mul\n      0x20\n      add\n      mload(0x40)\n      swap1\n      dup2\n      add\n      0x40\n      mstore\n      dup1\n      swap3\n      swap2\n      swap1\n      dup2\n      dup2\n      mstore\n      0x20\n      add\n      dup3\n      dup1\n      sload\n      tag_36\n      swap1\n      tag_35\n      jump\t// in\n    tag_36:\n      dup1\n      iszero\n      tag_37\n      jumpi\n      dup1\n      0x1f\n      lt\n      tag_38\n      jumpi\n      0x0100\n      dup1\n      dup4\n      sload\n      div\n      mul\n      dup4\n      mstore\n      swap2\n      0x20\n      add\n      swap2\n      jump(tag_37)\n    tag_38:\n      dup3\n      add\n      swap2\n      swap1\n      0x00\n      mstore\n      keccak256(0x00, 0x20)\n      swap1\n    tag_39:\n      dup2\n      sload\n      dup2\n      mstore\n      swap1\n      0x01\n      add\n      swap1\n      0x20\n      add\n      dup1\n      dup4\n      gt\n      tag_39\n      jumpi\n      dup3\n      swap1\n      sub\n      0x1f\n      and\n      dup3\n      add\n      swap2\n    tag_37:\n      pop\n      pop\n      pop\n      pop\n      pop\n      swap1\n      dup1\n      0x01\n      add\n      0x00\n      swap1\n      sload\n      swap1\n      0x0100\n      exp\n      swap1\n      div\n      0xffffffffffffffffffffffffffffffffffffffff\n      and\n      swap1\n      dup1\n      0x01\n      add\n      0x14\n      swap1\n      sload\n      swap1\n      0x0100\n      exp\n      swap1\n      div\n      0xff\n      and\n      swap1\n      pop\n      dup4\n      jump\t// out\n    tag_31:\n      dup3\n      dup1\n      sload\n      tag_40\n      swap1\n      tag_35\n      jump\t// in\n    tag_40:\n      swap1\n      0x00\n      mstore\n      keccak256(0x00, 0x20)\n      swap1\n      0x1f\n      add\n      0x20\n      swap1\n      div\n      dup2\n      add\n      swap3\n      dup3\n      tag_42\n      jumpi\n      0x00\n      dup6\n      sstore\n      jump(tag_41)\n    tag_42:\n      dup3\n      0x1f\n      lt\n      tag_43\n      jumpi\n      dup1\n      mload\n      not(0xff)\n      and\n      dup4\n      dup1\n      add\n      or\n      dup6\n      sstore\n      jump(tag_41)\n    tag_43:\n      dup3\n      dup1\n      add\n      0x01\n      add\n      dup6\n      sstore\n      dup3\n      iszero\n      tag_41\n      jumpi\n      swap2\n      dup3\n      add\n    tag_44:\n      dup3\n      dup2\n      gt\n      iszero\n      tag_45\n      jumpi\n      dup3\n      mload\n      dup3\n      sstore\n      swap2\n      0x20\n      add\n      swap2\n      swap1\n      0x01\n      add\n      swap1\n      jump(tag_44)\n    tag_45:\n    tag_41:\n      pop\n      swap1\n      pop\n      tag_46\n      swap2\n      swap1\n      tag_47\n      jump\t// in\n    tag_46:\n      pop\n      swap1\n      jump\t// out\n    tag_47:\n    tag_48:\n      dup1\n      dup3\n      gt\n      iszero\n      tag_49\n      jumpi\n      0x00\n      dup2\n      0x00\n      swap1\n      sstore\n      pop\n      0x01\n      add\n      jump(tag_48)\n    tag_49:\n      pop\n      swap1\n      jump\t// out\n        /* \"#utility.yul\":7:82   */\n    tag_50:\n        /* \"#utility.yul\":40:46   */\n      0x00\n        /* \"#utility.yul\":73:75   */\n      0x40\n        /* \"#utility.yul\":67:76   */\n      mload\n        /* \"#utility.yul\":57:76   */\n      swap1\n      pop\n        /* \"#utility.yul\":7:82   */\n      swap1\n      jump\t// out\n        /* \"#utility.yul\":88:205   */\n    tag_51:\n        /* \"#utility.yul\":197:198   */\n      0x00\n        /* \"#utility.yul\":194:195   */\n      dup1\n        /* \"#utility.yul\":187:199   */\n      revert\n        /* \"#utility.yul\":211:328   */\n    tag_52:\n        /* \"#utility.yul\":320:321   */\n      0x00\n        /* \"#utility.yul\":317:318   */\n      dup1\n        /* \"#utility.yul\":310:322   */\n      revert\n        /* \"#utility.yul\":334:460   */\n    tag_53:\n        /* \"#utility.yul\":371:378   */\n      0x00\n        /* \"#utility.yul\":411:453   */\n      0xffffffffffffffffffffffffffffffffffffffff\n        /* \"#utility.yul\":404:409   */\n      dup3\n        /* \"#utility.yul\":400:454   */\n      and\n        /* \"#utility.yul\":389:454   */\n      swap1\n      pop\n        /* \"#utility.yul\":334:460   */\n      swap2\n      swap1\n      pop\n      jump\t// out\n        /* \"#utility.yul\":466:562   */\n    tag_54:\n        /* \"#utility.yul\":503:510   */\n      0x00\n        /* \"#utility.yul\":532:556   */\n      tag_87\n        /* \"#utility.yul\":550:555   */\n      dup3\n        /* \"#utility.yul\":532:556   */\n      tag_53\n      jump\t// in\n    tag_87:\n        /* \"#utility.yul\":521:556   */\n      swap1\n      pop\n        /* \"#utility.yul\":466:562   */\n      swap2\n      swap1\n      pop\n      jump\t// out\n        /* \"#utility.yul\":568:690   */\n    tag_55:\n        /* \"#utility.yul\":641:665   */\n      tag_89\n        /* \"#utility.yul\":659:664   */\n      dup2\n        /* \"#utility.yul\":641:665   */\n      tag_54\n      jump\t// in\n    tag_89:\n        /* \"#utility.yul\":634:639   */\n      dup2\n        /* \"#utility.yul\":631:666   */\n      eq\n        /* \"#utility.yul\":621:684   */\n      tag_90\n      jumpi\n        /* \"#utility.yul\":680:681   */\n      0x00\n        /* \"#utility.yul\":677:678   */\n      dup1\n        /* \"#utility.yul\":670:682   */\n      revert\n        /* \"#utility.yul\":621:684   */\n    tag_90:\n        /* \"#utility.yul\":568:690   */\n      pop\n      jump\t// out\n        /* \"#utility.yul\":696:835   */\n    tag_56:\n        /* \"#utility.yul\":742:747   */\n      0x00\n        /* \"#utility.yul\":780:786   */\n      dup2\n        /* \"#utility.yul\":767:787   */\n      calldataload\n        /* \"#utility.yul\":758:787   */\n      swap1\n      pop\n        /* \"#utility.yul\":796:829   */\n      tag_92\n        /* \"#utility.yul\":823:828   */\n      dup2\n        /* \"#utility.yul\":796:829   */\n      tag_55\n      jump\t// in\n    tag_92:\n        /* \"#utility.yul\":696:835   */\n      swap3\n      swap2\n      pop\n      pop\n      jump\t// out\n        /* \"#utility.yul\":841:1170   */\n    tag_8:\n        /* \"#utility.yul\":900:906   */\n      0x00\n        /* \"#utility.yul\":949:951   */\n      0x20\n        /* \"#utility.yul\":937:946   */\n      dup3\n        /* \"#utility.yul\":928:935   */\n      dup5\n        /* \"#utility.yul\":924:947   */\n      sub\n        /* \"#utility.yul\":920:952   */\n      slt\n        /* \"#utility.yul\":917:1036   */\n      iszero\n      tag_94\n      jumpi\n        /* \"#utility.yul\":955:1034   */\n      tag_95\n      tag_51\n      jump\t// in\n    tag_95:\n        /* \"#utility.yul\":917:1036   */\n    tag_94:\n        /* \"#utility.yul\":1075:1076   */\n      0x00\n        /* \"#utility.yul\":1100:1153   */\n      tag_96\n        /* \"#utility.yul\":1145:1152   */\n      dup5\n        /* \"#utility.yul\":1136:1142   */\n      dup3\n        /* \"#utility.yul\":1125:1134   */\n      dup6\n        /* \"#utility.yul\":1121:1143   */\n      add\n        /* \"#utility.yul\":1100:1153   */\n      tag_56\n      jump\t// in\n    tag_96:\n        /* \"#utility.yul\":1090:1153   */\n      swap2\n      pop\n        /* \"#utility.yul\":1046:1163   */\n      pop\n        /* \"#utility.yul\":841:1170   */\n      swap3\n      swap2\n      pop\n      pop\n      jump\t// out\n        /* \"#utility.yul\":1176:1293   */\n    tag_57:\n        /* \"#utility.yul\":1285:1286   */\n      0x00\n        /* \"#utility.yul\":1282:1283   */\n      dup1\n        /* \"#utility.yul\":1275:1287   */\n      revert\n        /* \"#utility.yul\":1299:1416   */\n    tag_58:\n        /* \"#utility.yul\":1408:1409   */\n      0x00\n        /* \"#utility.yul\":1405:1406   */\n      dup1\n        /* \"#utility.yul\":1398:1410   */\n      revert\n        /* \"#utility.yul\":1422:1524   */\n    tag_59:\n        /* \"#utility.yul\":1463:1469   */\n      0x00\n        /* \"#utility.yul\":1514:1516   */\n      0x1f\n        /* \"#utility.yul\":1510:1517   */\n      not\n        /* \"#utility.yul\":1505:1507   */\n      0x1f\n        /* \"#utility.yul\":1498:1503   */\n      dup4\n        /* \"#utility.yul\":1494:1508   */\n      add\n        /* \"#utility.yul\":1490:1518   */\n      and\n        /* \"#utility.yul\":1480:1518   */\n      swap1\n      pop\n        /* \"#utility.yul\":1422:1524   */\n      swap2\n      swap1\n      pop\n      jump\t// out\n        /* \"#utility.yul\":1530:1710   */\n    tag_60:\n        /* \"#utility.yul\":1578:1655   */\n      0x4e487b7100000000000000000000000000000000000000000000000000000000\n        /* \"#utility.yul\":1575:1576   */\n      0x00\n        /* \"#utility.yul\":1568:1656   */\n      mstore\n        /* \"#utility.yul\":1675:1679   */\n      0x41\n        /* \"#utility.yul\":1672:1673   */\n      0x04\n        /* \"#utility.yul\":1665:1680   */\n      mstore\n        /* \"#utility.yul\":1699:1703   */\n      0x24\n        /* \"#utility.yul\":1696:1697   */\n      0x00\n        /* \"#utility.yul\":1689:1704   */\n      revert\n        /* \"#utility.yul\":1716:1997   */\n    tag_61:\n        /* \"#utility.yul\":1799:1826   */\n      tag_102\n        /* \"#utility.yul\":1821:1825   */\n      dup3\n        /* \"#utility.yul\":1799:1826   */\n      tag_59\n      jump\t// in\n    tag_102:\n        /* \"#utility.yul\":1791:1797   */\n      dup2\n        /* \"#utility.yul\":1787:1827   */\n      add\n        /* \"#utility.yul\":1929:1935   */\n      dup2\n        /* \"#utility.yul\":1917:1927   */\n      dup2\n        /* \"#utility.yul\":1914:1936   */\n      lt\n        /* \"#utility.yul\":1893:1911   */\n      0xffffffffffffffff\n        /* \"#utility.yul\":1881:1891   */\n      dup3\n        /* \"#utility.yul\":1878:1912   */\n      gt\n        /* \"#utility.yul\":1875:1937   */\n      or\n        /* \"#utility.yul\":1872:1960   */\n      iszero\n      tag_103\n      jumpi\n        /* \"#utility.yul\":1940:1958   */\n      tag_104\n      tag_60\n      jump\t// in\n    tag_104:\n        /* \"#utility.yul\":1872:1960   */\n    tag_103:\n        /* \"#utility.yul\":1980:1990   */\n      dup1\n        /* \"#utility.yul\":1976:1978   */\n      0x40\n        /* \"#utility.yul\":1969:1991   */\n      mstore\n        /* \"#utility.yul\":1759:1997   */\n      pop\n        /* \"#utility.yul\":1716:1997   */\n      pop\n      pop\n      jump\t// out\n        /* \"#utility.yul\":2003:2132   */\n    tag_62:\n        /* \"#utility.yul\":2037:2043   */\n      0x00\n        /* \"#utility.yul\":2064:2084   */\n      tag_106\n      tag_50\n      jump\t// in\n    tag_106:\n        /* \"#utility.yul\":2054:2084   */\n      swap1\n      pop\n        /* \"#utility.yul\":2093:2126   */\n      tag_107\n        /* \"#utility.yul\":2121:2125   */\n      dup3\n        /* \"#utility.yul\":2113:2119   */\n      dup3\n        /* \"#utility.yul\":2093:2126   */\n      tag_61\n      jump\t// in\n    tag_107:\n        /* \"#utility.yul\":2003:2132   */\n      swap2\n      swap1\n      pop\n      jump\t// out\n        /* \"#utility.yul\":2138:2446   */\n    tag_63:\n        /* \"#utility.yul\":2200:2204   */\n      0x00\n        /* \"#utility.yul\":2290:2308   */\n      0xffffffffffffffff\n        /* \"#utility.yul\":2282:2288   */\n      dup3\n        /* \"#utility.yul\":2279:2309   */\n      gt\n        /* \"#utility.yul\":2276:2332   */\n      iszero\n      tag_109\n      jumpi\n        /* \"#utility.yul\":2312:2330   */\n      tag_110\n      tag_60\n      jump\t// in\n    tag_110:\n        /* \"#utility.yul\":2276:2332   */\n    tag_109:\n        /* \"#utility.yul\":2350:2379   */\n      tag_111\n        /* \"#utility.yul\":2372:2378   */\n      dup3\n        /* \"#utility.yul\":2350:2379   */\n      tag_59\n      jump\t// in\n    tag_111:\n        /* \"#utility.yul\":2342:2379   */\n      swap1\n      pop\n        /* \"#utility.yul\":2434:2438   */\n      0x20\n        /* \"#utility.yul\":2428:2432   */\n      dup2\n        /* \"#utility.yul\":2424:2439   */\n      add\n        /* \"#utility.yul\":2416:2439   */\n      swap1\n      pop\n        /* \"#utility.yul\":2138:2446   */\n      swap2\n      swap1\n      pop\n      jump\t// out\n        /* \"#utility.yul\":2452:2606   */\n    tag_64:\n        /* \"#utility.yul\":2536:2542   */\n      dup3\n        /* \"#utility.yul\":2531:2534   */\n      dup2\n        /* \"#utility.yul\":2526:2529   */\n      dup4\n        /* \"#utility.yul\":2513:2543   */\n      calldatacopy\n        /* \"#utility.yul\":2598:2599   */\n      0x00\n        /* \"#utility.yul\":2589:2595   */\n      dup4\n        /* \"#utility.yul\":2584:2587   */\n      dup4\n        /* \"#utility.yul\":2580:2596   */\n      add\n        /* \"#utility.yul\":2573:2600   */\n      mstore\n        /* \"#utility.yul\":2452:2606   */\n      pop\n      pop\n      pop\n      jump\t// out\n        /* \"#utility.yul\":2612:3024   */\n    tag_65:\n        /* \"#utility.yul\":2690:2695   */\n      0x00\n        /* \"#utility.yul\":2715:2781   */\n      tag_114\n        /* \"#utility.yul\":2731:2780   */\n      tag_115\n        /* \"#utility.yul\":2773:2779   */\n      dup5\n        /* \"#utility.yul\":2731:2780   */\n      tag_63\n      jump\t// in\n    tag_115:\n        /* \"#utility.yul\":2715:2781   */\n      tag_62\n      jump\t// in\n    tag_114:\n        /* \"#utility.yul\":2706:2781   */\n      swap1\n      pop\n        /* \"#utility.yul\":2804:2810   */\n      dup3\n        /* \"#utility.yul\":2797:2802   */\n      dup2\n        /* \"#utility.yul\":2790:2811   */\n      mstore\n        /* \"#utility.yul\":2842:2846   */\n      0x20\n        /* \"#utility.yul\":2835:2840   */\n      dup2\n        /* \"#utility.yul\":2831:2847   */\n      add\n        /* \"#utility.yul\":2880:2883   */\n      dup5\n        /* \"#utility.yul\":2871:2877   */\n      dup5\n        /* \"#utility.yul\":2866:2869   */\n      dup5\n        /* \"#utility.yul\":2862:2878   */\n      add\n        /* \"#utility.yul\":2859:2884   */\n      gt\n        /* \"#utility.yul\":2856:2968   */\n      iszero\n      tag_116\n      jumpi\n        /* \"#utility.yul\":2887:2966   */\n      tag_117\n      tag_58\n      jump\t// in\n    tag_117:\n        /* \"#utility.yul\":2856:2968   */\n    tag_116:\n        /* \"#utility.yul\":2977:3018   */\n      tag_118\n        /* \"#utility.yul\":3011:3017   */\n      dup5\n        /* \"#utility.yul\":3006:3009   */\n      dup3\n        /* \"#utility.yul\":3001:3004   */\n      dup6\n        /* \"#utility.yul\":2977:3018   */\n      tag_64\n      jump\t// in\n    tag_118:\n        /* \"#utility.yul\":2696:3024   */\n      pop\n        /* \"#utility.yul\":2612:3024   */\n      swap4\n      swap3\n      pop\n      pop\n      pop\n      jump\t// out\n        /* \"#utility.yul\":3044:3384   */\n    tag_66:\n        /* \"#utility.yul\":3100:3105   */\n      0x00\n        /* \"#utility.yul\":3149:3152   */\n      dup3\n        /* \"#utility.yul\":3142:3146   */\n      0x1f\n        /* \"#utility.yul\":3134:3140   */\n      dup4\n        /* \"#utility.yul\":3130:3147   */\n      add\n        /* \"#utility.yul\":3126:3153   */\n      slt\n        /* \"#utility.yul\":3116:3238   */\n      tag_120\n      jumpi\n        /* \"#utility.yul\":3157:3236   */\n      tag_121\n      tag_57\n      jump\t// in\n    tag_121:\n        /* \"#utility.yul\":3116:3238   */\n    tag_120:\n        /* \"#utility.yul\":3274:3280   */\n      dup2\n        /* \"#utility.yul\":3261:3281   */\n      calldataload\n        /* \"#utility.yul\":3299:3378   */\n      tag_122\n        /* \"#utility.yul\":3374:3377   */\n      dup5\n        /* \"#utility.yul\":3366:3372   */\n      dup3\n        /* \"#utility.yul\":3359:3363   */\n      0x20\n        /* \"#utility.yul\":3351:3357   */\n      dup7\n        /* \"#utility.yul\":3347:3364   */\n      add\n        /* \"#utility.yul\":3299:3378   */\n      tag_65\n      jump\t// in\n    tag_122:\n        /* \"#utility.yul\":3290:3378   */\n      swap2\n      pop\n        /* \"#utility.yul\":3106:3384   */\n      pop\n        /* \"#utility.yul\":3044:3384   */\n      swap3\n      swap2\n      pop\n      pop\n      jump\t// out\n        /* \"#utility.yul\":3390:3899   */\n    tag_12:\n        /* \"#utility.yul\":3459:3465   */\n      0x00\n        /* \"#utility.yul\":3508:3510   */\n      0x20\n        /* \"#utility.yul\":3496:3505   */\n      dup3\n        /* \"#utility.yul\":3487:3494   */\n      dup5\n        /* \"#utility.yul\":3483:3506   */\n      sub\n        /* \"#utility.yul\":3479:3511   */\n      slt\n        /* \"#utility.yul\":3476:3595   */\n      iszero\n      tag_124\n      jumpi\n        /* \"#utility.yul\":3514:3593   */\n      tag_125\n      tag_51\n      jump\t// in\n    tag_125:\n        /* \"#utility.yul\":3476:3595   */\n    tag_124:\n        /* \"#utility.yul\":3662:3663   */\n      0x00\n        /* \"#utility.yul\":3651:3660   */\n      dup3\n        /* \"#utility.yul\":3647:3664   */\n      add\n        /* \"#utility.yul\":3634:3665   */\n      calldataload\n        /* \"#utility.yul\":3692:3710   */\n      0xffffffffffffffff\n        /* \"#utility.yul\":3684:3690   */\n      dup2\n        /* \"#utility.yul\":3681:3711   */\n      gt\n        /* \"#utility.yul\":3678:3795   */\n      iszero\n      tag_126\n      jumpi\n        /* \"#utility.yul\":3714:3793   */\n      tag_127\n      tag_52\n      jump\t// in\n    tag_127:\n        /* \"#utility.yul\":3678:3795   */\n    tag_126:\n        /* \"#utility.yul\":3819:3882   */\n      tag_128\n        /* \"#utility.yul\":3874:3881   */\n      dup5\n        /* \"#utility.yul\":3865:3871   */\n      dup3\n        /* \"#utility.yul\":3854:3863   */\n      dup6\n        /* \"#utility.yul\":3850:3872   */\n      add\n        /* \"#utility.yul\":3819:3882   */\n      tag_66\n      jump\t// in\n    tag_128:\n        /* \"#utility.yul\":3809:3882   */\n      swap2\n      pop\n        /* \"#utility.yul\":3605:3892   */\n      pop\n        /* \"#utility.yul\":3390:3899   */\n      swap3\n      swap2\n      pop\n      pop\n      jump\t// out\n        /* \"#utility.yul\":3905:4004   */\n    tag_67:\n        /* \"#utility.yul\":3957:3963   */\n      0x00\n        /* \"#utility.yul\":3991:3996   */\n      dup2\n        /* \"#utility.yul\":3985:3997   */\n      mload\n        /* \"#utility.yul\":3975:3997   */\n      swap1\n      pop\n        /* \"#utility.yul\":3905:4004   */\n      swap2\n      swap1\n      pop\n      jump\t// out\n        /* \"#utility.yul\":4010:4179   */\n    tag_68:\n        /* \"#utility.yul\":4094:4105   */\n      0x00\n        /* \"#utility.yul\":4128:4134   */\n      dup3\n        /* \"#utility.yul\":4123:4126   */\n      dup3\n        /* \"#utility.yul\":4116:4135   */\n      mstore\n        /* \"#utility.yul\":4168:4172   */\n      0x20\n        /* \"#utility.yul\":4163:4166   */\n      dup3\n        /* \"#utility.yul\":4159:4173   */\n      add\n        /* \"#utility.yul\":4144:4173   */\n      swap1\n      pop\n        /* \"#utility.yul\":4010:4179   */\n      swap3\n      swap2\n      pop\n      pop\n      jump\t// out\n        /* \"#utility.yul\":4185:4492   */\n    tag_69:\n        /* \"#utility.yul\":4253:4254   */\n      0x00\n        /* \"#utility.yul\":4263:4376   */\n    tag_132:\n        /* \"#utility.yul\":4277:4283   */\n      dup4\n        /* \"#utility.yul\":4274:4275   */\n      dup2\n        /* \"#utility.yul\":4271:4284   */\n      lt\n        /* \"#utility.yul\":4263:4376   */\n      iszero\n      tag_134\n      jumpi\n        /* \"#utility.yul\":4362:4363   */\n      dup1\n        /* \"#utility.yul\":4357:4360   */\n      dup3\n        /* \"#utility.yul\":4353:4364   */\n      add\n        /* \"#utility.yul\":4347:4365   */\n      mload\n        /* \"#utility.yul\":4343:4344   */\n      dup2\n        /* \"#utility.yul\":4338:4341   */\n      dup5\n        /* \"#utility.yul\":4334:4345   */\n      add\n        /* \"#utility.yul\":4327:4366   */\n      mstore\n        /* \"#utility.yul\":4299:4301   */\n      0x20\n        /* \"#utility.yul\":4296:4297   */\n      dup2\n        /* \"#utility.yul\":4292:4302   */\n      add\n        /* \"#utility.yul\":4287:4302   */\n      swap1\n      pop\n        /* \"#utility.yul\":4263:4376   */\n      jump(tag_132)\n    tag_134:\n        /* \"#utility.yul\":4394:4400   */\n      dup4\n        /* \"#utility.yul\":4391:4392   */\n      dup2\n        /* \"#utility.yul\":4388:4401   */\n      gt\n        /* \"#utility.yul\":4385:4486   */\n      iszero\n      tag_135\n      jumpi\n        /* \"#utility.yul\":4474:4475   */\n      0x00\n        /* \"#utility.yul\":4465:4471   */\n      dup5\n        /* \"#utility.yul\":4460:4463   */\n      dup5\n        /* \"#utility.yul\":4456:4472   */\n      add\n        /* \"#utility.yul\":4449:4476   */\n      mstore\n        /* \"#utility.yul\":4385:4486   */\n    tag_135:\n        /* \"#utility.yul\":4234:4492   */\n      pop\n        /* \"#utility.yul\":4185:4492   */\n      pop\n      pop\n      pop\n      jump\t// out\n        /* \"#utility.yul\":4498:4862   */\n    tag_70:\n        /* \"#utility.yul\":4586:4589   */\n      0x00\n        /* \"#utility.yul\":4614:4653   */\n      tag_137\n        /* \"#utility.yul\":4647:4652   */\n      dup3\n        /* \"#utility.yul\":4614:4653   */\n      tag_67\n      jump\t// in\n    tag_137:\n        /* \"#utility.yul\":4669:4740   */\n      tag_138\n        /* \"#utility.yul\":4733:4739   */\n      dup2\n        /* \"#utility.yul\":4728:4731   */\n      dup6\n        /* \"#utility.yul\":4669:4740   */\n      tag_68\n      jump\t// in\n    tag_138:\n        /* \"#utility.yul\":4662:4740   */\n      swap4\n      pop\n        /* \"#utility.yul\":4749:4801   */\n      tag_139\n        /* \"#utility.yul\":4794:4800   */\n      dup2\n        /* \"#utility.yul\":4789:4792   */\n      dup6\n        /* \"#utility.yul\":4782:4786   */\n      0x20\n        /* \"#utility.yul\":4775:4780   */\n      dup7\n        /* \"#utility.yul\":4771:4787   */\n      add\n        /* \"#utility.yul\":4749:4801   */\n      tag_69\n      jump\t// in\n    tag_139:\n        /* \"#utility.yul\":4826:4855   */\n      tag_140\n        /* \"#utility.yul\":4848:4854   */\n      dup2\n        /* \"#utility.yul\":4826:4855   */\n      tag_59\n      jump\t// in\n    tag_140:\n        /* \"#utility.yul\":4821:4824   */\n      dup5\n        /* \"#utility.yul\":4817:4856   */\n      add\n        /* \"#utility.yul\":4810:4856   */\n      swap2\n      pop\n        /* \"#utility.yul\":4590:4862   */\n      pop\n        /* \"#utility.yul\":4498:4862   */\n      swap3\n      swap2\n      pop\n      pop\n      jump\t// out\n        /* \"#utility.yul\":4868:4986   */\n    tag_71:\n        /* \"#utility.yul\":4955:4979   */\n      tag_142\n        /* \"#utility.yul\":4973:4978   */\n      dup2\n        /* \"#utility.yul\":4955:4979   */\n      tag_54\n      jump\t// in\n    tag_142:\n        /* \"#utility.yul\":4950:4953   */\n      dup3\n        /* \"#utility.yul\":4943:4980   */\n      mstore\n        /* \"#utility.yul\":4868:4986   */\n      pop\n      pop\n      jump\t// out\n        /* \"#utility.yul\":4992:5082   */\n    tag_72:\n        /* \"#utility.yul\":5026:5033   */\n      0x00\n        /* \"#utility.yul\":5069:5074   */\n      dup2\n        /* \"#utility.yul\":5062:5075   */\n      iszero\n        /* \"#utility.yul\":5055:5076   */\n      iszero\n        /* \"#utility.yul\":5044:5076   */\n      swap1\n      pop\n        /* \"#utility.yul\":4992:5082   */\n      swap2\n      swap1\n      pop\n      jump\t// out\n        /* \"#utility.yul\":5088:5197   */\n    tag_73:\n        /* \"#utility.yul\":5169:5190   */\n      tag_145\n        /* \"#utility.yul\":5184:5189   */\n      dup2\n        /* \"#utility.yul\":5169:5190   */\n      tag_72\n      jump\t// in\n    tag_145:\n        /* \"#utility.yul\":5164:5167   */\n      dup3\n        /* \"#utility.yul\":5157:5191   */\n      mstore\n        /* \"#utility.yul\":5088:5197   */\n      pop\n      pop\n      jump\t// out\n        /* \"#utility.yul\":5203:5724   */\n    tag_18:\n        /* \"#utility.yul\":5366:5370   */\n      0x00\n        /* \"#utility.yul\":5404:5406   */\n      0x60\n        /* \"#utility.yul\":5393:5402   */\n      dup3\n        /* \"#utility.yul\":5389:5407   */\n      add\n        /* \"#utility.yul\":5381:5407   */\n      swap1\n      pop\n        /* \"#utility.yul\":5453:5462   */\n      dup2\n        /* \"#utility.yul\":5447:5451   */\n      dup2\n        /* \"#utility.yul\":5443:5463   */\n      sub\n        /* \"#utility.yul\":5439:5440   */\n      0x00\n        /* \"#utility.yul\":5428:5437   */\n      dup4\n        /* \"#utility.yul\":5424:5441   */\n      add\n        /* \"#utility.yul\":5417:5464   */\n      mstore\n        /* \"#utility.yul\":5481:5559   */\n      tag_147\n        /* \"#utility.yul\":5554:5558   */\n      dup2\n        /* \"#utility.yul\":5545:5551   */\n      dup7\n        /* \"#utility.yul\":5481:5559   */\n      tag_70\n      jump\t// in\n    tag_147:\n        /* \"#utility.yul\":5473:5559   */\n      swap1\n      pop\n        /* \"#utility.yul\":5569:5641   */\n      tag_148\n        /* \"#utility.yul\":5637:5639   */\n      0x20\n        /* \"#utility.yul\":5626:5635   */\n      dup4\n        /* \"#utility.yul\":5622:5640   */\n      add\n        /* \"#utility.yul\":5613:5619   */\n      dup6\n        /* \"#utility.yul\":5569:5641   */\n      tag_71\n      jump\t// in\n    tag_148:\n        /* \"#utility.yul\":5651:5717   */\n      tag_149\n        /* \"#utility.yul\":5713:5715   */\n      0x40\n        /* \"#utility.yul\":5702:5711   */\n      dup4\n        /* \"#utility.yul\":5698:5716   */\n      add\n        /* \"#utility.yul\":5689:5695   */\n      dup5\n        /* \"#utility.yul\":5651:5717   */\n      tag_73\n      jump\t// in\n    tag_149:\n        /* \"#utility.yul\":5203:5724   */\n      swap5\n      swap4\n      pop\n      pop\n      pop\n      pop\n      jump\t// out\n        /* \"#utility.yul\":5730:5964   */\n    tag_74:\n        /* \"#utility.yul\":5870:5904   */\n      0x566572696669636174696f6e2063616e206f6e6c7920626520706572666f726d\n        /* \"#utility.yul\":5866:5867   */\n      0x00\n        /* \"#utility.yul\":5858:5864   */\n      dup3\n        /* \"#utility.yul\":5854:5868   */\n      add\n        /* \"#utility.yul\":5847:5905   */\n      mstore\n        /* \"#utility.yul\":5939:5956   */\n      0x65642062792074686520757365722e0000000000000000000000000000000000\n        /* \"#utility.yul\":5934:5936   */\n      0x20\n        /* \"#utility.yul\":5926:5932   */\n      dup3\n        /* \"#utility.yul\":5922:5937   */\n      add\n        /* \"#utility.yul\":5915:5957   */\n      mstore\n        /* \"#utility.yul\":5730:5964   */\n      pop\n      jump\t// out\n        /* \"#utility.yul\":5970:6336   */\n    tag_75:\n        /* \"#utility.yul\":6112:6115   */\n      0x00\n        /* \"#utility.yul\":6133:6200   */\n      tag_152\n        /* \"#utility.yul\":6197:6199   */\n      0x2f\n        /* \"#utility.yul\":6192:6195   */\n      dup4\n        /* \"#utility.yul\":6133:6200   */\n      tag_68\n      jump\t// in\n    tag_152:\n        /* \"#utility.yul\":6126:6200   */\n      swap2\n      pop\n        /* \"#utility.yul\":6209:6302   */\n      tag_153\n        /* \"#utility.yul\":6298:6301   */\n      dup3\n        /* \"#utility.yul\":6209:6302   */\n      tag_74\n      jump\t// in\n    tag_153:\n        /* \"#utility.yul\":6327:6329   */\n      0x40\n        /* \"#utility.yul\":6322:6325   */\n      dup3\n        /* \"#utility.yul\":6318:6330   */\n      add\n        /* \"#utility.yul\":6311:6330   */\n      swap1\n      pop\n        /* \"#utility.yul\":5970:6336   */\n      swap2\n      swap1\n      pop\n      jump\t// out\n        /* \"#utility.yul\":6342:6761   */\n    tag_22:\n        /* \"#utility.yul\":6508:6512   */\n      0x00\n        /* \"#utility.yul\":6546:6548   */\n      0x20\n        /* \"#utility.yul\":6535:6544   */\n      dup3\n        /* \"#utility.yul\":6531:6549   */\n      add\n        /* \"#utility.yul\":6523:6549   */\n      swap1\n      pop\n        /* \"#utility.yul\":6595:6604   */\n      dup2\n        /* \"#utility.yul\":6589:6593   */\n      dup2\n        /* \"#utility.yul\":6585:6605   */\n      sub\n        /* \"#utility.yul\":6581:6582   */\n      0x00\n        /* \"#utility.yul\":6570:6579   */\n      dup4\n        /* \"#utility.yul\":6566:6583   */\n      add\n        /* \"#utility.yul\":6559:6606   */\n      mstore\n        /* \"#utility.yul\":6623:6754   */\n      tag_155\n        /* \"#utility.yul\":6749:6753   */\n      dup2\n        /* \"#utility.yul\":6623:6754   */\n      tag_75\n      jump\t// in\n    tag_155:\n        /* \"#utility.yul\":6615:6754   */\n      swap1\n      pop\n        /* \"#utility.yul\":6342:6761   */\n      swap2\n      swap1\n      pop\n      jump\t// out\n        /* \"#utility.yul\":6767:6947   */\n    tag_76:\n        /* \"#utility.yul\":6815:6892   */\n      0x4e487b7100000000000000000000000000000000000000000000000000000000\n        /* \"#utility.yul\":6812:6813   */\n      0x00\n        /* \"#utility.yul\":6805:6893   */\n      mstore\n        /* \"#utility.yul\":6912:6916   */\n      0x22\n        /* \"#utility.yul\":6909:6910   */\n      0x04\n        /* \"#utility.yul\":6902:6917   */\n      mstore\n        /* \"#utility.yul\":6936:6940   */\n      0x24\n        /* \"#utility.yul\":6933:6934   */\n      0x00\n        /* \"#utility.yul\":6926:6941   */\n      revert\n        /* \"#utility.yul\":6953:7273   */\n    tag_35:\n        /* \"#utility.yul\":6997:7003   */\n      0x00\n        /* \"#utility.yul\":7034:7035   */\n      0x02\n        /* \"#utility.yul\":7028:7032   */\n      dup3\n        /* \"#utility.yul\":7024:7036   */\n      div\n        /* \"#utility.yul\":7014:7036   */\n      swap1\n      pop\n        /* \"#utility.yul\":7081:7082   */\n      0x01\n        /* \"#utility.yul\":7075:7079   */\n      dup3\n        /* \"#utility.yul\":7071:7083   */\n      and\n        /* \"#utility.yul\":7102:7120   */\n      dup1\n        /* \"#utility.yul\":7092:7173   */\n      tag_158\n      jumpi\n        /* \"#utility.yul\":7158:7162   */\n      0x7f\n        /* \"#utility.yul\":7150:7156   */\n      dup3\n        /* \"#utility.yul\":7146:7163   */\n      and\n        /* \"#utility.yul\":7136:7163   */\n      swap2\n      pop\n        /* \"#utility.yul\":7092:7173   */\n    tag_158:\n        /* \"#utility.yul\":7220:7222   */\n      0x20\n        /* \"#utility.yul\":7212:7218   */\n      dup3\n        /* \"#utility.yul\":7209:7223   */\n      lt\n        /* \"#utility.yul\":7189:7207   */\n      dup2\n        /* \"#utility.yul\":7186:7224   */\n      eq\n        /* \"#utility.yul\":7183:7267   */\n      iszero\n      tag_159\n      jumpi\n        /* \"#utility.yul\":7239:7257   */\n      tag_160\n      tag_76\n      jump\t// in\n    tag_160:\n        /* \"#utility.yul\":7183:7267   */\n    tag_159:\n        /* \"#utility.yul\":7004:7273   */\n      pop\n        /* \"#utility.yul\":6953:7273   */\n      swap2\n      swap1\n      pop\n      jump\t// out\n        /* \"#utility.yul\":7279:7420   */\n    tag_77:\n        /* \"#utility.yul\":7328:7332   */\n      0x00\n        /* \"#utility.yul\":7351:7354   */\n      dup2\n        /* \"#utility.yul\":7343:7354   */\n      swap1\n      pop\n        /* \"#utility.yul\":7374:7377   */\n      dup2\n        /* \"#utility.yul\":7371:7372   */\n      0x00\n        /* \"#utility.yul\":7364:7378   */\n      mstore\n        /* \"#utility.yul\":7408:7412   */\n      0x20\n        /* \"#utility.yul\":7405:7406   */\n      0x00\n        /* \"#utility.yul\":7395:7413   */\n      keccak256\n        /* \"#utility.yul\":7387:7413   */\n      swap1\n      pop\n        /* \"#utility.yul\":7279:7420   */\n      swap2\n      swap1\n      pop\n      jump\t// out\n        /* \"#utility.yul\":7450:8252   */\n    tag_78:\n        /* \"#utility.yul\":7535:7538   */\n      0x00\n        /* \"#utility.yul\":7572:7577   */\n      dup2\n        /* \"#utility.yul\":7566:7578   */\n      sload\n        /* \"#utility.yul\":7601:7637   */\n      tag_163\n        /* \"#utility.yul\":7627:7636   */\n      dup2\n        /* \"#utility.yul\":7601:7637   */\n      tag_35\n      jump\t// in\n    tag_163:\n        /* \"#utility.yul\":7653:7724   */\n      tag_164\n        /* \"#utility.yul\":7717:7723   */\n      dup2\n        /* \"#utility.yul\":7712:7715   */\n      dup7\n        /* \"#utility.yul\":7653:7724   */\n      tag_68\n      jump\t// in\n    tag_164:\n        /* \"#utility.yul\":7646:7724   */\n      swap5\n      pop\n        /* \"#utility.yul\":7755:7756   */\n      0x01\n        /* \"#utility.yul\":7744:7753   */\n      dup3\n        /* \"#utility.yul\":7740:7757   */\n      and\n        /* \"#utility.yul\":7771:7772   */\n      0x00\n        /* \"#utility.yul\":7766:7901   */\n      dup2\n      eq\n      tag_166\n      jumpi\n        /* \"#utility.yul\":7915:7916   */\n      0x01\n        /* \"#utility.yul\":7910:8246   */\n      dup2\n      eq\n      tag_167\n      jumpi\n        /* \"#utility.yul\":7733:8246   */\n      jump(tag_165)\n        /* \"#utility.yul\":7766:7901   */\n    tag_166:\n        /* \"#utility.yul\":7850:7854   */\n      0xff\n        /* \"#utility.yul\":7846:7855   */\n      not\n        /* \"#utility.yul\":7835:7844   */\n      dup4\n        /* \"#utility.yul\":7831:7856   */\n      and\n        /* \"#utility.yul\":7826:7829   */\n      dup7\n        /* \"#utility.yul\":7819:7857   */\n      mstore\n        /* \"#utility.yul\":7886:7890   */\n      0x20\n        /* \"#utility.yul\":7881:7884   */\n      dup7\n        /* \"#utility.yul\":7877:7891   */\n      add\n        /* \"#utility.yul\":7870:7891   */\n      swap4\n      pop\n        /* \"#utility.yul\":7766:7901   */\n      jump(tag_165)\n        /* \"#utility.yul\":7910:8246   */\n    tag_167:\n        /* \"#utility.yul\":7977:8015   */\n      tag_168\n        /* \"#utility.yul\":8009:8014   */\n      dup6\n        /* \"#utility.yul\":7977:8015   */\n      tag_77\n      jump\t// in\n    tag_168:\n        /* \"#utility.yul\":8037:8038   */\n      0x00\n        /* \"#utility.yul\":8051:8205   */\n    tag_169:\n        /* \"#utility.yul\":8065:8071   */\n      dup4\n        /* \"#utility.yul\":8062:8063   */\n      dup2\n        /* \"#utility.yul\":8059:8072   */\n      lt\n        /* \"#utility.yul\":8051:8205   */\n      iszero\n      tag_171\n      jumpi\n        /* \"#utility.yul\":8139:8146   */\n      dup2\n        /* \"#utility.yul\":8133:8147   */\n      sload\n        /* \"#utility.yul\":8129:8130   */\n      dup2\n        /* \"#utility.yul\":8124:8127   */\n      dup10\n        /* \"#utility.yul\":8120:8131   */\n      add\n        /* \"#utility.yul\":8113:8148   */\n      mstore\n        /* \"#utility.yul\":8189:8190   */\n      0x01\n        /* \"#utility.yul\":8180:8187   */\n      dup3\n        /* \"#utility.yul\":8176:8191   */\n      add\n        /* \"#utility.yul\":8165:8191   */\n      swap2\n      pop\n        /* \"#utility.yul\":8087:8091   */\n      0x20\n        /* \"#utility.yul\":8084:8085   */\n      dup2\n        /* \"#utility.yul\":8080:8092   */\n      add\n        /* \"#utility.yul\":8075:8092   */\n      swap1\n      pop\n        /* \"#utility.yul\":8051:8205   */\n      jump(tag_169)\n    tag_171:\n        /* \"#utility.yul\":8234:8235   */\n      dup1\n        /* \"#utility.yul\":8229:8232   */\n      dup9\n        /* \"#utility.yul\":8225:8236   */\n      add\n        /* \"#utility.yul\":8218:8236   */\n      swap6\n      pop\n        /* \"#utility.yul\":7917:8246   */\n      pop\n      pop\n        /* \"#utility.yul\":7733:8246   */\n    tag_165:\n      pop\n        /* \"#utility.yul\":7539:8252   */\n      pop\n      pop\n        /* \"#utility.yul\":7450:8252   */\n      swap3\n      swap2\n      pop\n      pop\n      jump\t// out\n        /* \"#utility.yul\":8258:8663   */\n    tag_24:\n        /* \"#utility.yul\":8390:8394   */\n      0x00\n        /* \"#utility.yul\":8428:8430   */\n      0x40\n        /* \"#utility.yul\":8417:8426   */\n      dup3\n        /* \"#utility.yul\":8413:8431   */\n      add\n        /* \"#utility.yul\":8405:8431   */\n      swap1\n      pop\n        /* \"#utility.yul\":8477:8486   */\n      dup2\n        /* \"#utility.yul\":8471:8475   */\n      dup2\n        /* \"#utility.yul\":8467:8487   */\n      sub\n        /* \"#utility.yul\":8463:8464   */\n      0x00\n        /* \"#utility.yul\":8452:8461   */\n      dup4\n        /* \"#utility.yul\":8448:8465   */\n      add\n        /* \"#utility.yul\":8441:8488   */\n      mstore\n        /* \"#utility.yul\":8505:8580   */\n      tag_173\n        /* \"#utility.yul\":8575:8579   */\n      dup2\n        /* \"#utility.yul\":8566:8572   */\n      dup6\n        /* \"#utility.yul\":8505:8580   */\n      tag_78\n      jump\t// in\n    tag_173:\n        /* \"#utility.yul\":8497:8580   */\n      swap1\n      pop\n        /* \"#utility.yul\":8590:8656   */\n      tag_174\n        /* \"#utility.yul\":8652:8654   */\n      0x20\n        /* \"#utility.yul\":8641:8650   */\n      dup4\n        /* \"#utility.yul\":8637:8655   */\n      add\n        /* \"#utility.yul\":8628:8634   */\n      dup5\n        /* \"#utility.yul\":8590:8656   */\n      tag_73\n      jump\t// in\n    tag_174:\n        /* \"#utility.yul\":8258:8663   */\n      swap4\n      swap3\n      pop\n      pop\n      pop\n      jump\t// out\n        /* \"#utility.yul\":8669:8842   */\n    tag_79:\n        /* \"#utility.yul\":8809:8834   */\n      0x5573657220616c72656164792072656769737465726564000000000000000000\n        /* \"#utility.yul\":8805:8806   */\n      0x00\n        /* \"#utility.yul\":8797:8803   */\n      dup3\n        /* \"#utility.yul\":8793:8807   */\n      add\n        /* \"#utility.yul\":8786:8835   */\n      mstore\n        /* \"#utility.yul\":8669:8842   */\n      pop\n      jump\t// out\n        /* \"#utility.yul\":8848:9214   */\n    tag_80:\n        /* \"#utility.yul\":8990:8993   */\n      0x00\n        /* \"#utility.yul\":9011:9078   */\n      tag_177\n        /* \"#utility.yul\":9075:9077   */\n      0x17\n        /* \"#utility.yul\":9070:9073   */\n      dup4\n        /* \"#utility.yul\":9011:9078   */\n      tag_68\n      jump\t// in\n    tag_177:\n        /* \"#utility.yul\":9004:9078   */\n      swap2\n      pop\n        /* \"#utility.yul\":9087:9180   */\n      tag_178\n        /* \"#utility.yul\":9176:9179   */\n      dup3\n        /* \"#utility.yul\":9087:9180   */\n      tag_79\n      jump\t// in\n    tag_178:\n        /* \"#utility.yul\":9205:9207   */\n      0x20\n        /* \"#utility.yul\":9200:9203   */\n      dup3\n        /* \"#utility.yul\":9196:9208   */\n      add\n        /* \"#utility.yul\":9189:9208   */\n      swap1\n      pop\n        /* \"#utility.yul\":8848:9214   */\n      swap2\n      swap1\n      pop\n      jump\t// out\n        /* \"#utility.yul\":9220:9639   */\n    tag_28:\n        /* \"#utility.yul\":9386:9390   */\n      0x00\n        /* \"#utility.yul\":9424:9426   */\n      0x20\n        /* \"#utility.yul\":9413:9422   */\n      dup3\n        /* \"#utility.yul\":9409:9427   */\n      add\n        /* \"#utility.yul\":9401:9427   */\n      swap1\n      pop\n        /* \"#utility.yul\":9473:9482   */\n      dup2\n        /* \"#utility.yul\":9467:9471   */\n      dup2\n        /* \"#utility.yul\":9463:9483   */\n      sub\n        /* \"#utility.yul\":9459:9460   */\n      0x00\n        /* \"#utility.yul\":9448:9457   */\n      dup4\n        /* \"#utility.yul\":9444:9461   */\n      add\n        /* \"#utility.yul\":9437:9484   */\n      mstore\n        /* \"#utility.yul\":9501:9632   */\n      tag_180\n        /* \"#utility.yul\":9627:9631   */\n      dup2\n        /* \"#utility.yul\":9501:9632   */\n      tag_80\n      jump\t// in\n    tag_180:\n        /* \"#utility.yul\":9493:9632   */\n      swap1\n      pop\n        /* \"#utility.yul\":9220:9639   */\n      swap2\n      swap1\n      pop\n      jump\t// out\n        /* \"#utility.yul\":9645:10056   */\n    tag_33:\n        /* \"#utility.yul\":9780:9784   */\n      0x00\n        /* \"#utility.yul\":9818:9820   */\n      0x40\n        /* \"#utility.yul\":9807:9816   */\n      dup3\n        /* \"#utility.yul\":9803:9821   */\n      add\n        /* \"#utility.yul\":9795:9821   */\n      swap1\n      pop\n        /* \"#utility.yul\":9867:9876   */\n      dup2\n        /* \"#utility.yul\":9861:9865   */\n      dup2\n        /* \"#utility.yul\":9857:9877   */\n      sub\n        /* \"#utility.yul\":9853:9854   */\n      0x00\n        /* \"#utility.yul\":9842:9851   */\n      dup4\n        /* \"#utility.yul\":9838:9855   */\n      add\n        /* \"#utility.yul\":9831:9878   */\n      mstore\n        /* \"#utility.yul\":9895:9973   */\n      tag_182\n        /* \"#utility.yul\":9968:9972   */\n      dup2\n        /* \"#utility.yul\":9959:9965   */\n      dup6\n        /* \"#utility.yul\":9895:9973   */\n      tag_70\n      jump\t// in\n    tag_182:\n        /* \"#utility.yul\":9887:9973   */\n      swap1\n      pop\n        /* \"#utility.yul\":9983:10049   */\n      tag_183\n        /* \"#utility.yul\":10045:10047   */\n      0x20\n        /* \"#utility.yul\":10034:10043   */\n      dup4\n        /* \"#utility.yul\":10030:10048   */\n      add\n        /* \"#utility.yul\":10021:10027   */\n      dup5\n        /* \"#utility.yul\":9983:10049   */\n      tag_73\n      jump\t// in\n    tag_183:\n        /* \"#utility.yul\":9645:10056   */\n      swap4\n      swap3\n      pop\n      pop\n      pop\n      jump\t// out\n\n    auxdata: 0xa26469706673582212202d3ac77b2746c39ae3ad886a7f30a3ac6f4568b2d0f3f44417a32468db403e3864736f6c634300080a0033\n}\n",
    "bytecode": {
      "linkReferences": {},
      "object": "608060405234801561001057600080fd5b50610b53806100206000396000f3fe608060405234801561001057600080fd5b50600436106100415760003560e01c80634d81312014610046578063704f1b9414610062578063a87430ba1461007e575b600080fd5b610060600480360381019061005b919061061d565b6100b0565b005b61007c60048036038101906100779190610790565b61020c565b005b6100986004803603810190610093919061061d565b610429565b6040516100a79392919061088b565b60405180910390f35b8073ffffffffffffffffffffffffffffffffffffffff163373ffffffffffffffffffffffffffffffffffffffff161461011e576040517f08c379a00000000000000000000000000000000000000000000000000000000081526004016101159061093b565b60405180910390fd5b60016000808373ffffffffffffffffffffffffffffffffffffffff1673ffffffffffffffffffffffffffffffffffffffff16815260200190815260200160002060010160146101000a81548160ff0219169083151502179055508073ffffffffffffffffffffffffffffffffffffffff167f0b2d2fe99b0620e0994de6f522eb19dcc5b5fd39b27be67cea0547c4ed9dbdfc6000808473ffffffffffffffffffffffffffffffffffffffff1673ffffffffffffffffffffffffffffffffffffffff1681526020019081526020016000206000016001604051610201929190610a51565b60405180910390a250565b600073ffffffffffffffffffffffffffffffffffffffff166000803373ffffffffffffffffffffffffffffffffffffffff1673ffffffffffffffffffffffffffffffffffffffff16815260200190815260200160002060010160009054906101000a900473ffffffffffffffffffffffffffffffffffffffff1673ffffffffffffffffffffffffffffffffffffffff16146102dc576040517f08c379a00000000000000000000000000000000000000000000000000000000081526004016102d390610acd565b60405180910390fd5b60405180606001604052808281526020013373ffffffffffffffffffffffffffffffffffffffff168152602001600015158152506000803373ffffffffffffffffffffffffffffffffffffffff1673ffffffffffffffffffffffffffffffffffffffff168152602001908152602001600020600082015181600001908051906020019061036a929190610508565b5060208201518160010160006101000a81548173ffffffffffffffffffffffffffffffffffffffff021916908373ffffffffffffffffffffffffffffffffffffffff16021790555060408201518160010160146101000a81548160ff0219169083151502179055509050503373ffffffffffffffffffffffffffffffffffffffff167f0b2d2fe99b0620e0994de6f522eb19dcc5b5fd39b27be67cea0547c4ed9dbdfc82600060405161041e929190610aed565b60405180910390a250565b600060205280600052604060002060009150905080600001805461044c9061098a565b80601f01602080910402602001604051908101604052809291908181526020018280546104789061098a565b80156104c55780601f1061049a576101008083540402835291602001916104c5565b820191906000526020600020905b8154815290600101906020018083116104a857829003601f168201915b5050505050908060010160009054906101000a900473ffffffffffffffffffffffffffffffffffffffff16908060010160149054906101000a900460ff16905083565b8280546105149061098a565b90600052602060002090601f016020900481019282610536576000855561057d565b82601f1061054f57805160ff191683800117855561057d565b8280016001018555821561057d579182015b8281111561057c578251825591602001919060010190610561565b5b50905061058a919061058e565b5090565b5b808211156105a757600081600090555060010161058f565b5090565b6000604051905090565b600080fd5b600080fd5b600073ffffffffffffffffffffffffffffffffffffffff82169050919050565b60006105ea826105bf565b9050919050565b6105fa816105df565b811461060557600080fd5b50565b600081359050610617816105f1565b92915050565b600060208284031215610633576106326105b5565b5b600061064184828501610608565b91505092915050565b600080fd5b600080fd5b6000601f19601f8301169050919050565b7f4e487b7100000000000000000000000000000000000000000000000000000000600052604160045260246000fd5b61069d82610654565b810181811067ffffffffffffffff821117156106bc576106bb610665565b5b80604052505050565b60006106cf6105ab565b90506106db8282610694565b919050565b600067ffffffffffffffff8211156106fb576106fa610665565b5b61070482610654565b9050602081019050919050565b82818337600083830152505050565b600061073361072e846106e0565b6106c5565b90508281526020810184848401111561074f5761074e61064f565b5b61075a848285610711565b509392505050565b600082601f8301126107775761077661064a565b5b8135610787848260208601610720565b91505092915050565b6000602082840312156107a6576107a56105b5565b5b600082013567ffffffffffffffff8111156107c4576107c36105ba565b5b6107d084828501610762565b91505092915050565b600081519050919050565b600082825260208201905092915050565b60005b838110156108135780820151818401526020810190506107f8565b83811115610822576000848401525b50505050565b6000610833826107d9565b61083d81856107e4565b935061084d8185602086016107f5565b61085681610654565b840191505092915050565b61086a816105df565b82525050565b60008115159050919050565b61088581610870565b82525050565b600060608201905081810360008301526108a58186610828565b90506108b46020830185610861565b6108c1604083018461087c565b949350505050565b7f566572696669636174696f6e2063616e206f6e6c7920626520706572666f726d60008201527f65642062792074686520757365722e0000000000000000000000000000000000602082015250565b6000610925602f836107e4565b9150610930826108c9565b604082019050919050565b6000602082019050818103600083015261095481610918565b9050919050565b7f4e487b7100000000000000000000000000000000000000000000000000000000600052602260045260246000fd5b600060028204905060018216806109a257607f821691505b602082108114156109b6576109b561095b565b5b50919050565b60008190508160005260206000209050919050565b600081546109de8161098a565b6109e881866107e4565b94506001821660008114610a035760018114610a1557610a48565b60ff1983168652602086019350610a48565b610a1e856109bc565b60005b83811015610a4057815481890152600182019150602081019050610a21565b808801955050505b50505092915050565b60006040820190508181036000830152610a6b81856109d1565b9050610a7a602083018461087c565b9392505050565b7f5573657220616c72656164792072656769737465726564000000000000000000600082015250565b6000610ab76017836107e4565b9150610ac282610a81565b602082019050919050565b60006020820190508181036000830152610ae681610aaa565b9050919050565b60006040820190508181036000830152610b078185610828565b9050610b16602083018461087c565b939250505056fea26469706673582212202d3ac77b2746c39ae3ad886a7f30a3ac6f4568b2d0f3f44417a32468db403e3864736f6c634300080a0033",
      "opcodes": "PUSH1 0x80 PUSH1 0x40 MSTORE CALLVALUE DUP1 ISZERO PUSH2 0x10 JUMPI PUSH1 0x0 DUP1 REVERT JUMPDEST POP PUSH2 0xB53 DUP1 PUSH2 0x20 PUSH1 0x0 CODECOPY PUSH1 0x0 RETURN INVALID PUSH1 0x80 PUSH1 0x40 MSTORE CALLVALUE DUP1 ISZERO PUSH2 0x10 JUMPI PUSH1 0x0 DUP1 REVERT JUMPDEST POP PUSH1 0x4 CALLDATASIZE LT PUSH2 0x41 JUMPI PUSH1 0x0 CALLDATALOAD PUSH1 0xE0 SHR DUP1 PUSH4 0x4D813120 EQ PUSH2 0x46 JUMPI DUP1 PUSH4 0x704F1B94 EQ PUSH2 0x62 JUMPI DUP1 PUSH4 0xA87430BA EQ PUSH2 0x7E JUMPI JUMPDEST PUSH1 0x0 DUP1 REVERT JUMPDEST PUSH2 0x60 PUSH1 0x4 DUP1 CALLDATASIZE SUB DUP2 ADD SWAP1 PUSH2 0x5B SWAP2 SWAP1 PUSH2 0x61D JUMP JUMPDEST PUSH2 0xB0 JUMP JUMPDEST STOP JUMPDEST PUSH2 0x7C PUSH1 0x4 DUP1 CALLDATASIZE SUB DUP2 ADD SWAP1 PUSH2 0x77 SWAP2 SWAP1 PUSH2 0x790 JUMP JUMPDEST PUSH2 0x20C JUMP JUMPDEST STOP JUMPDEST PUSH2 0x98 PUSH1 0x4 DUP1 CALLDATASIZE SUB DUP2 ADD SWAP1 PUSH2 0x93 SWAP2 SWAP1 PUSH2 0x61D JUMP JUMPDEST PUSH2 0x429 JUMP JUMPDEST PUSH1 0x40 MLOAD PUSH2 0xA7 SWAP4 SWAP3 SWAP2 SWAP1 PUSH2 0x88B JUMP JUMPDEST PUSH1 0x40 MLOAD DUP1 SWAP2 SUB SWAP1 RETURN JUMPDEST DUP1 PUSH20 0xFFFFFFFFFFFFFFFFFFFFFFFFFFFFFFFFFFFFFFFF AND CALLER PUSH20 0xFFFFFFFFFFFFFFFFFFFFFFFFFFFFFFFFFFFFFFFF AND EQ PUSH2 0x11E JUMPI PUSH1 0x40 MLOAD PUSH32 0x8C379A000000000000000000000000000000000000000000000000000000000 DUP2 MSTORE PUSH1 0x4 ADD PUSH2 0x115 SWAP1 PUSH2 0x93B JUMP JUMPDEST PUSH1 0x40 MLOAD DUP1 SWAP2 SUB SWAP1 REVERT JUMPDEST PUSH1 0x1 PUSH1 0x0 DUP1 DUP4 PUSH20 0xFFFFFFFFFFFFFFFFFFFFFFFFFFFFFFFFFFFFFFFF AND PUSH20 0xFFFFFFFFFFFFFFFFFFFFFFFFFFFFFFFFFFFFFFFF AND DUP2 MSTORE PUSH1 0x20 ADD SWAP1 DUP2 MSTORE PUSH1 0x20 ADD PUSH1 0x0 KECCAK256 PUSH1 0x1 ADD PUSH1 0x14 PUSH2 0x100 EXP DUP2 SLOAD DUP2 PUSH1 0xFF MUL NOT AND SWAP1 DUP4 ISZERO ISZERO MUL OR SWAP1 SSTORE POP DUP1 PUSH20 0xFFFFFFFFFFFFFFFFFFFFFFFFFFFFFFFFFFFFFFFF AND PUSH32 0xB2D2FE99B0620E0994DE6F522EB19DCC5B5FD39B27BE67CEA0547C4ED9DBDFC PUSH1 0x0 DUP1 DUP5 PUSH20 0xFFFFFFFFFFFFFFFFFFFFFFFFFFFFFFFFFFFFFFFF AND PUSH20 0xFFFFFFFFFFFFFFFFFFFFFFFFFFFFFFFFFFFFFFFF AND DUP2 MSTORE PUSH1 0x20 ADD SWAP1 DUP2 MSTORE PUSH1 0x20 ADD PUSH1 0x0 KECCAK256 PUSH1 0x0 ADD PUSH1 0x1 PUSH1 0x40 MLOAD PUSH2 0x201 SWAP3 SWAP2 SWAP1 PUSH2 0xA51 JUMP JUMPDEST PUSH1 0x40 MLOAD DUP1 SWAP2 SUB SWAP1 LOG2 POP JUMP JUMPDEST PUSH1 0x0 PUSH20 0xFFFFFFFFFFFFFFFFFFFFFFFFFFFFFFFFFFFFFFFF AND PUSH1 0x0 DUP1 CALLER PUSH20 0xFFFFFFFFFFFFFFFFFFFFFFFFFFFFFFFFFFFFFFFF AND PUSH20 0xFFFFFFFFFFFFFFFFFFFFFFFFFFFFFFFFFFFFFFFF AND DUP2 MSTORE PUSH1 0x20 ADD SWAP1 DUP2 MSTORE PUSH1 0x20 ADD PUSH1 0x0 KECCAK256 PUSH1 0x1 ADD PUSH1 0x0 SWAP1 SLOAD SWAP1 PUSH2 0x100 EXP SWAP1 DIV PUSH20 0xFFFFFFFFFFFFFFFFFFFFFFFFFFFFFFFFFFFFFFFF AND PUSH20 0xFFFFFFFFFFFFFFFFFFFFFFFFFFFFFFFFFFFFFFFF AND EQ PUSH2 0x2DC JUMPI PUSH1 0x40 MLOAD PUSH32 0x8C379A000000000000000000000000000000000000000000000000000000000 DUP2 MSTORE PUSH1 0x4 ADD PUSH2 0x2D3 SWAP1 PUSH2 0xACD JUMP JUMPDEST PUSH1 0x40 MLOAD DUP1 SWAP2 SUB SWAP1 REVERT JUMPDEST PUSH1 0x40 MLOAD DUP1 PUSH1 0x60 ADD PUSH1 0x40 MSTORE DUP1 DUP3 DUP2 MSTORE PUSH1 0x20 ADD CALLER PUSH20 0xFFFFFFFFFFFFFFFFFFFFFFFFFFFFFFFFFFFFFFFF AND DUP2 MSTORE PUSH1 0x20 ADD PUSH1 0x0 ISZERO ISZERO DUP2 MSTORE POP PUSH1 0x0 DUP1 CALLER PUSH20 0xFFFFFFFFFFFFFFFFFFFFFFFFFFFFFFFFFFFFFFFF AND PUSH20 0xFFFFFFFFFFFFFFFFFFFFFFFFFFFFFFFFFFFFFFFF AND DUP2 MSTORE PUSH1 0x20 ADD SWAP1 DUP2 MSTORE PUSH1 0x20 ADD PUSH1 0x0 KECCAK256 PUSH1 0x0 DUP3 ADD MLOAD DUP2 PUSH1 0x0 ADD SWAP1 DUP1 MLOAD SWAP1 PUSH1 0x20 ADD SWAP1 PUSH2 0x36A SWAP3 SWAP2 SWAP1 PUSH2 0x508 JUMP JUMPDEST POP PUSH1 0x20 DUP3 ADD MLOAD DUP2 PUSH1 0x1 ADD PUSH1 0x0 PUSH2 0x100 EXP DUP2 SLOAD DUP2 PUSH20 0xFFFFFFFFFFFFFFFFFFFFFFFFFFFFFFFFFFFFFFFF MUL NOT AND SWAP1 DUP4 PUSH20 0xFFFFFFFFFFFFFFFFFFFFFFFFFFFFFFFFFFFFFFFF AND MUL OR SWAP1 SSTORE POP PUSH1 0x40 DUP3 ADD MLOAD DUP2 PUSH1 0x1 ADD PUSH1 0x14 PUSH2 0x100 EXP DUP2 SLOAD DUP2 PUSH1 0xFF MUL NOT AND SWAP1 DUP4 ISZERO ISZERO MUL OR SWAP1 SSTORE POP SWAP1 POP POP CALLER PUSH20 0xFFFFFFFFFFFFFFFFFFFFFFFFFFFFFFFFFFFFFFFF AND PUSH32 0xB2D2FE99B0620E0994DE6F522EB19DCC5B5FD39B27BE67CEA0547C4ED9DBDFC DUP3 PUSH1 0x0 PUSH1 0x40 MLOAD PUSH2 0x41E SWAP3 SWAP2 SWAP1 PUSH2 0xAED JUMP JUMPDEST PUSH1 0x40 MLOAD DUP1 SWAP2 SUB SWAP1 LOG2 POP JUMP JUMPDEST PUSH1 0x0 PUSH1 0x20 MSTORE DUP1 PUSH1 0x0 MSTORE PUSH1 0x40 PUSH1 0x0 KECCAK256 PUSH1 0x0 SWAP2 POP SWAP1 POP DUP1 PUSH1 0x0 ADD DUP1 SLOAD PUSH2 0x44C SWAP1 PUSH2 0x98A JUMP JUMPDEST DUP1 PUSH1 0x1F ADD PUSH1 0x20 DUP1 SWAP2 DIV MUL PUSH1 0x20 ADD PUSH1 0x40 MLOAD SWAP1 DUP2 ADD PUSH1 0x40 MSTORE DUP1 SWAP3 SWAP2 SWAP1 DUP2 DUP2 MSTORE PUSH1 0x20 ADD DUP3 DUP1 SLOAD PUSH2 0x478 SWAP1 PUSH2 0x98A JUMP JUMPDEST DUP1 ISZERO PUSH2 0x4C5 JUMPI DUP1 PUSH1 0x1F LT PUSH2 0x49A JUMPI PUSH2 0x100 DUP1 DUP4 SLOAD DIV MUL DUP4 MSTORE SWAP2 PUSH1 0x20 ADD SWAP2 PUSH2 0x4C5 JUMP JUMPDEST DUP3 ADD SWAP2 SWAP1 PUSH1 0x0 MSTORE PUSH1 0x20 PUSH1 0x0 KECCAK256 SWAP1 JUMPDEST DUP2 SLOAD DUP2 MSTORE SWAP1 PUSH1 0x1 ADD SWAP1 PUSH1 0x20 ADD DUP1 DUP4 GT PUSH2 0x4A8 JUMPI DUP3 SWAP1 SUB PUSH1 0x1F AND DUP3 ADD SWAP2 JUMPDEST POP POP POP POP POP SWAP1 DUP1 PUSH1 0x1 ADD PUSH1 0x0 SWAP1 SLOAD SWAP1 PUSH2 0x100 EXP SWAP1 DIV PUSH20 0xFFFFFFFFFFFFFFFFFFFFFFFFFFFFFFFFFFFFFFFF AND SWAP1 DUP1 PUSH1 0x1 ADD PUSH1 0x14 SWAP1 SLOAD SWAP1 PUSH2 0x100 EXP SWAP1 DIV PUSH1 0xFF AND SWAP1 POP DUP4 JUMP JUMPDEST DUP3 DUP1 SLOAD PUSH2 0x514 SWAP1 PUSH2 0x98A JUMP JUMPDEST SWAP1 PUSH1 0x0 MSTORE PUSH1 0x20 PUSH1 0x0 KECCAK256 SWAP1 PUSH1 0x1F ADD PUSH1 0x20 SWAP1 DIV DUP2 ADD SWAP3 DUP3 PUSH2 0x536 JUMPI PUSH1 0x0 DUP6 SSTORE PUSH2 0x57D JUMP JUMPDEST DUP3 PUSH1 0x1F LT PUSH2 0x54F JUMPI DUP1 MLOAD PUSH1 0xFF NOT AND DUP4 DUP1 ADD OR DUP6 SSTORE PUSH2 0x57D JUMP JUMPDEST DUP3 DUP1 ADD PUSH1 0x1 ADD DUP6 SSTORE DUP3 ISZERO PUSH2 0x57D JUMPI SWAP2 DUP3 ADD JUMPDEST DUP3 DUP2 GT ISZERO PUSH2 0x57C JUMPI DUP3 MLOAD DUP3 SSTORE SWAP2 PUSH1 0x20 ADD SWAP2 SWAP1 PUSH1 0x1 ADD SWAP1 PUSH2 0x561 JUMP JUMPDEST JUMPDEST POP SWAP1 POP PUSH2 0x58A SWAP2 SWAP1 PUSH2 0x58E JUMP JUMPDEST POP SWAP1 JUMP JUMPDEST JUMPDEST DUP1 DUP3 GT ISZERO PUSH2 0x5A7 JUMPI PUSH1 0x0 DUP2 PUSH1 0x0 SWAP1 SSTORE POP PUSH1 0x1 ADD PUSH2 0x58F JUMP JUMPDEST POP SWAP1 JUMP JUMPDEST PUSH1 0x0 PUSH1 0x40 MLOAD SWAP1 POP SWAP1 JUMP JUMPDEST PUSH1 0x0 DUP1 REVERT JUMPDEST PUSH1 0x0 DUP1 REVERT JUMPDEST PUSH1 0x0 PUSH20 0xFFFFFFFFFFFFFFFFFFFFFFFFFFFFFFFFFFFFFFFF DUP3 AND SWAP1 POP SWAP2 SWAP1 POP JUMP JUMPDEST PUSH1 0x0 PUSH2 0x5EA DUP3 PUSH2 0x5BF JUMP JUMPDEST SWAP1 POP SWAP2 SWAP1 POP JUMP JUMPDEST PUSH2 0x5FA DUP2 PUSH2 0x5DF JUMP JUMPDEST DUP2 EQ PUSH2 0x605 JUMPI PUSH1 0x0 DUP1 REVERT JUMPDEST POP JUMP JUMPDEST PUSH1 0x0 DUP2 CALLDATALOAD SWAP1 POP PUSH2 0x617 DUP2 PUSH2 0x5F1 JUMP JUMPDEST SWAP3 SWAP2 POP POP JUMP JUMPDEST PUSH1 0x0 PUSH1 0x20 DUP3 DUP5 SUB SLT ISZERO PUSH2 0x633 JUMPI PUSH2 0x632 PUSH2 0x5B5 JUMP JUMPDEST JUMPDEST PUSH1 0x0 PUSH2 0x641 DUP5 DUP3 DUP6 ADD PUSH2 0x608 JUMP JUMPDEST SWAP2 POP POP SWAP3 SWAP2 POP POP JUMP JUMPDEST PUSH1 0x0 DUP1 REVERT JUMPDEST PUSH1 0x0 DUP1 REVERT JUMPDEST PUSH1 0x0 PUSH1 0x1F NOT PUSH1 0x1F DUP4 ADD AND SWAP1 POP SWAP2 SWAP1 POP JUMP JUMPDEST PUSH32 0x4E487B7100000000000000000000000000000000000000000000000000000000 PUSH1 0x0 MSTORE PUSH1 0x41 PUSH1 0x4 MSTORE PUSH1 0x24 PUSH1 0x0 REVERT JUMPDEST PUSH2 0x69D DUP3 PUSH2 0x654 JUMP JUMPDEST DUP2 ADD DUP2 DUP2 LT PUSH8 0xFFFFFFFFFFFFFFFF DUP3 GT OR ISZERO PUSH2 0x6BC JUMPI PUSH2 0x6BB PUSH2 0x665 JUMP JUMPDEST JUMPDEST DUP1 PUSH1 0x40 MSTORE POP POP POP JUMP JUMPDEST PUSH1 0x0 PUSH2 0x6CF PUSH2 0x5AB JUMP JUMPDEST SWAP1 POP PUSH2 0x6DB DUP3 DUP3 PUSH2 0x694 JUMP JUMPDEST SWAP2 SWAP1 POP JUMP JUMPDEST PUSH1 0x0 PUSH8 0xFFFFFFFFFFFFFFFF DUP3 GT ISZERO PUSH2 0x6FB JUMPI PUSH2 0x6FA PUSH2 0x665 JUMP JUMPDEST JUMPDEST PUSH2 0x704 DUP3 PUSH2 0x654 JUMP JUMPDEST SWAP1 POP PUSH1 0x20 DUP2 ADD SWAP1 POP SWAP2 SWAP1 POP JUMP JUMPDEST DUP3 DUP2 DUP4 CALLDATACOPY PUSH1 0x0 DUP4 DUP4 ADD MSTORE POP POP POP JUMP JUMPDEST PUSH1 0x0 PUSH2 0x733 PUSH2 0x72E DUP5 PUSH2 0x6E0 JUMP JUMPDEST PUSH2 0x6C5 JUMP JUMPDEST SWAP1 POP DUP3 DUP2 MSTORE PUSH1 0x20 DUP2 ADD DUP5 DUP5 DUP5 ADD GT ISZERO PUSH2 0x74F JUMPI PUSH2 0x74E PUSH2 0x64F JUMP JUMPDEST JUMPDEST PUSH2 0x75A DUP5 DUP3 DUP6 PUSH2 0x711 JUMP JUMPDEST POP SWAP4 SWAP3 POP POP POP JUMP JUMPDEST PUSH1 0x0 DUP3 PUSH1 0x1F DUP4 ADD SLT PUSH2 0x777 JUMPI PUSH2 0x776 PUSH2 0x64A JUMP JUMPDEST JUMPDEST DUP2 CALLDATALOAD PUSH2 0x787 DUP5 DUP3 PUSH1 0x20 DUP7 ADD PUSH2 0x720 JUMP JUMPDEST SWAP2 POP POP SWAP3 SWAP2 POP POP JUMP JUMPDEST PUSH1 0x0 PUSH1 0x20 DUP3 DUP5 SUB SLT ISZERO PUSH2 0x7A6 JUMPI PUSH2 0x7A5 PUSH2 0x5B5 JUMP JUMPDEST JUMPDEST PUSH1 0x0 DUP3 ADD CALLDATALOAD PUSH8 0xFFFFFFFFFFFFFFFF DUP2 GT ISZERO PUSH2 0x7C4 JUMPI PUSH2 0x7C3 PUSH2 0x5BA JUMP JUMPDEST JUMPDEST PUSH2 0x7D0 DUP5 DUP3 DUP6 ADD PUSH2 0x762 JUMP JUMPDEST SWAP2 POP POP SWAP3 SWAP2 POP POP JUMP JUMPDEST PUSH1 0x0 DUP2 MLOAD SWAP1 POP SWAP2 SWAP1 POP JUMP JUMPDEST PUSH1 0x0 DUP3 DUP3 MSTORE PUSH1 0x20 DUP3 ADD SWAP1 POP SWAP3 SWAP2 POP POP JUMP JUMPDEST PUSH1 0x0 JUMPDEST DUP4 DUP2 LT ISZERO PUSH2 0x813 JUMPI DUP1 DUP3 ADD MLOAD DUP2 DUP5 ADD MSTORE PUSH1 0x20 DUP2 ADD SWAP1 POP PUSH2 0x7F8 JUMP JUMPDEST DUP4 DUP2 GT ISZERO PUSH2 0x822 JUMPI PUSH1 0x0 DUP5 DUP5 ADD MSTORE JUMPDEST POP POP POP POP JUMP JUMPDEST PUSH1 0x0 PUSH2 0x833 DUP3 PUSH2 0x7D9 JUMP JUMPDEST PUSH2 0x83D DUP2 DUP6 PUSH2 0x7E4 JUMP JUMPDEST SWAP4 POP PUSH2 0x84D DUP2 DUP6 PUSH1 0x20 DUP7 ADD PUSH2 0x7F5 JUMP JUMPDEST PUSH2 0x856 DUP2 PUSH2 0x654 JUMP JUMPDEST DUP5 ADD SWAP2 POP POP SWAP3 SWAP2 POP POP JUMP JUMPDEST PUSH2 0x86A DUP2 PUSH2 0x5DF JUMP JUMPDEST DUP3 MSTORE POP POP JUMP JUMPDEST PUSH1 0x0 DUP2 ISZERO ISZERO SWAP1 POP SWAP2 SWAP1 POP JUMP JUMPDEST PUSH2 0x885 DUP2 PUSH2 0x870 JUMP JUMPDEST DUP3 MSTORE POP POP JUMP JUMPDEST PUSH1 0x0 PUSH1 0x60 DUP3 ADD SWAP1 POP DUP2 DUP2 SUB PUSH1 0x0 DUP4 ADD MSTORE PUSH2 0x8A5 DUP2 DUP7 PUSH2 0x828 JUMP JUMPDEST SWAP1 POP PUSH2 0x8B4 PUSH1 0x20 DUP4 ADD DUP6 PUSH2 0x861 JUMP JUMPDEST PUSH2 0x8C1 PUSH1 0x40 DUP4 ADD DUP5 PUSH2 0x87C JUMP JUMPDEST SWAP5 SWAP4 POP POP POP POP JUMP JUMPDEST PUSH32 0x566572696669636174696F6E2063616E206F6E6C7920626520706572666F726D PUSH1 0x0 DUP3 ADD MSTORE PUSH32 0x65642062792074686520757365722E0000000000000000000000000000000000 PUSH1 0x20 DUP3 ADD MSTORE POP JUMP JUMPDEST PUSH1 0x0 PUSH2 0x925 PUSH1 0x2F DUP4 PUSH2 0x7E4 JUMP JUMPDEST SWAP2 POP PUSH2 0x930 DUP3 PUSH2 0x8C9 JUMP JUMPDEST PUSH1 0x40 DUP3 ADD SWAP1 POP SWAP2 SWAP1 POP JUMP JUMPDEST PUSH1 0x0 PUSH1 0x20 DUP3 ADD SWAP1 POP DUP2 DUP2 SUB PUSH1 0x0 DUP4 ADD MSTORE PUSH2 0x954 DUP2 PUSH2 0x918 JUMP JUMPDEST SWAP1 POP SWAP2 SWAP1 POP JUMP JUMPDEST PUSH32 0x4E487B7100000000000000000000000000000000000000000000000000000000 PUSH1 0x0 MSTORE PUSH1 0x22 PUSH1 0x4 MSTORE PUSH1 0x24 PUSH1 0x0 REVERT JUMPDEST PUSH1 0x0 PUSH1 0x2 DUP3 DIV SWAP1 POP PUSH1 0x1 DUP3 AND DUP1 PUSH2 0x9A2 JUMPI PUSH1 0x7F DUP3 AND SWAP2 POP JUMPDEST PUSH1 0x20 DUP3 LT DUP2 EQ ISZERO PUSH2 0x9B6 JUMPI PUSH2 0x9B5 PUSH2 0x95B JUMP JUMPDEST JUMPDEST POP SWAP2 SWAP1 POP JUMP JUMPDEST PUSH1 0x0 DUP2 SWAP1 POP DUP2 PUSH1 0x0 MSTORE PUSH1 0x20 PUSH1 0x0 KECCAK256 SWAP1 POP SWAP2 SWAP1 POP JUMP JUMPDEST PUSH1 0x0 DUP2 SLOAD PUSH2 0x9DE DUP2 PUSH2 0x98A JUMP JUMPDEST PUSH2 0x9E8 DUP2 DUP7 PUSH2 0x7E4 JUMP JUMPDEST SWAP5 POP PUSH1 0x1 DUP3 AND PUSH1 0x0 DUP2 EQ PUSH2 0xA03 JUMPI PUSH1 0x1 DUP2 EQ PUSH2 0xA15 JUMPI PUSH2 0xA48 JUMP JUMPDEST PUSH1 0xFF NOT DUP4 AND DUP7 MSTORE PUSH1 0x20 DUP7 ADD SWAP4 POP PUSH2 0xA48 JUMP JUMPDEST PUSH2 0xA1E DUP6 PUSH2 0x9BC JUMP JUMPDEST PUSH1 0x0 JUMPDEST DUP4 DUP2 LT ISZERO PUSH2 0xA40 JUMPI DUP2 SLOAD DUP2 DUP10 ADD MSTORE PUSH1 0x1 DUP3 ADD SWAP2 POP PUSH1 0x20 DUP2 ADD SWAP1 POP PUSH2 0xA21 JUMP JUMPDEST DUP1 DUP9 ADD SWAP6 POP POP POP JUMPDEST POP POP POP SWAP3 SWAP2 POP POP JUMP JUMPDEST PUSH1 0x0 PUSH1 0x40 DUP3 ADD SWAP1 POP DUP2 DUP2 SUB PUSH1 0x0 DUP4 ADD MSTORE PUSH2 0xA6B DUP2 DUP6 PUSH2 0x9D1 JUMP JUMPDEST SWAP1 POP PUSH2 0xA7A PUSH1 0x20 DUP4 ADD DUP5 PUSH2 0x87C JUMP JUMPDEST SWAP4 SWAP3 POP POP POP JUMP JUMPDEST PUSH32 0x5573657220616C72656164792072656769737465726564000000000000000000 PUSH1 0x0 DUP3 ADD MSTORE POP JUMP JUMPDEST PUSH1 0x0 PUSH2 0xAB7 PUSH1 0x17 DUP4 PUSH2 0x7E4 JUMP JUMPDEST SWAP2 POP PUSH2 0xAC2 DUP3 PUSH2 0xA81 JUMP JUMPDEST PUSH1 0x20 DUP3 ADD SWAP1 POP SWAP2 SWAP1 POP JUMP JUMPDEST PUSH1 0x0 PUSH1 0x20 DUP3 ADD SWAP1 POP DUP2 DUP2 SUB PUSH1 0x0 DUP4 ADD MSTORE PUSH2 0xAE6 DUP2 PUSH2 0xAAA JUMP JUMPDEST SWAP1 POP SWAP2 SWAP1 POP JUMP JUMPDEST PUSH1 0x0 PUSH1 0x40 DUP3 ADD SWAP1 POP DUP2 DUP2 SUB PUSH1 0x0 DUP4 ADD MSTORE PUSH2 0xB07 DUP2 DUP6 PUSH2 0x828 JUMP JUMPDEST SWAP1 POP PUSH2 0xB16 PUSH1 0x20 DUP4 ADD DUP5 PUSH2 0x87C JUMP JUMPDEST SWAP4 SWAP3 POP POP POP JUMP INVALID LOG2 PUSH5 0x6970667358 0x22 SLT KECCAK256 0x2D GASPRICE 0xC7 PUSH28 0x2746C39AE3AD886A7F30A3AC6F4568B2D0F3F44417A32468DB403E38 PUSH5 0x736F6C6343 STOP ADDMOD EXP STOP CALLER "
    },
    "gasEstimates": {
      "creation": {
        "codeDepositCost": "579800",
        "executionCost": "613",
        "totalCost": "580413"
      },
      "external": {
        "registerUser(string)": "infinite",
        "users(address)": "infinite",
        "verifyUser(address)": "infinite"
      }
    },
    "methodIdentifiers": {
      "registerUser(string)": "704f1b94",
      "users(address)": "a87430ba",
      "verifyUser(address)": "4d813120"
    }
  },
  "storageLayout": {
    "storage": [
      {
        "astId": 303,
        "contract": "UserRegistration.sol:UserRegistration",
        "label": "users",
        "offset": 0,
        "slot": "0",
        "type": "t_mapping(t_address,t_struct(UserProfile)298_storage)"
      }
    ],
    "types": {
      "t_address": {
        "encoding": "inplace",
        "label": "address",
        "numberOfBytes": "20"
      },
      "t_bool": {
        "encoding": "inplace",
        "label": "bool",
        "numberOfBytes": "1"
      },
      "t_mapping(t_address,t_struct(UserProfile)298_storage)": {
        "encoding": "mapping",
        "key": "t_address",
        "label": "mapping(address => struct UserRegistration.UserProfile)",
        "numberOfBytes": "32",
        "value": "t_struct(UserProfile)298_storage"
      },
      "t_string_storage": {
        "encoding": "bytes",
        "label": "string",
        "numberOfBytes": "32"
      },
      "t_struct(UserProfile)298_storage": {
        "encoding": "inplace",
        "label": "struct UserRegistration.UserProfile",
        "members": [
          {
            "astId": 293,
            "contract": "UserRegistration.sol:UserRegistration",
            "label": "name",
            "offset": 0,
            "slot": "0",
            "type": "t_string_storage"
          },
          {
            "astId": 295,
            "contract": "UserRegistration.sol:UserRegistration",
            "label": "walletAddress",
            "offset": 0,
            "slot": "1",
            "type": "t_address"
          },
          {
            "astId": 297,
            "contract": "UserRegistration.sol:UserRegistration",
            "label": "isVerified",
            "offset": 20,
            "slot": "1",
            "type": "t_bool"
          }
        ],
        "numberOfBytes": "64"
      }
    }
  },
  "userdoc": {
    "kind": "user",
    "methods": {},
    "version": 1
  }
}